{"abi":[{"type":"constructor","inputs":[{"name":"admin","type":"address","internalType":"address"},{"name":"baseUri","type":"string","internalType":"string"}],"stateMutability":"nonpayable"},{"type":"function","name":"BURNER_ROLE","inputs":[],"outputs":[{"name":"","type":"bytes32","internalType":"bytes32"}],"stateMutability":"view"},{"type":"function","name":"DEFAULT_ADMIN_ROLE","inputs":[],"outputs":[{"name":"","type":"bytes32","internalType":"bytes32"}],"stateMutability":"view"},{"type":"function","name":"MINTER_ROLE","inputs":[],"outputs":[{"name":"","type":"bytes32","internalType":"bytes32"}],"stateMutability":"view"},{"type":"function","name":"balanceOf","inputs":[{"name":"account","type":"address","internalType":"address"},{"name":"id","type":"uint256","internalType":"uint256"}],"outputs":[{"name":"","type":"uint256","internalType":"uint256"}],"stateMutability":"view"},{"type":"function","name":"balanceOfBatch","inputs":[{"name":"accounts","type":"address[]","internalType":"address[]"},{"name":"ids","type":"uint256[]","internalType":"uint256[]"}],"outputs":[{"name":"","type":"uint256[]","internalType":"uint256[]"}],"stateMutability":"view"},{"type":"function","name":"burn","inputs":[{"name":"from","type":"address","internalType":"address"},{"name":"tokenId","type":"uint256","internalType":"uint256"}],"outputs":[],"stateMutability":"nonpayable"},{"type":"function","name":"getMetadata","inputs":[{"name":"tokenId","type":"uint256","internalType":"uint256"}],"outputs":[{"name":"","type":"tuple","internalType":"struct CardNFT.CardMetadata","components":[{"name":"psaSerialNumber","type":"string","internalType":"string"},{"name":"grade","type":"uint8","internalType":"uint8"},{"name":"cardName","type":"string","internalType":"string"},{"name":"setName","type":"string","internalType":"string"},{"name":"symbol","type":"string","internalType":"string"},{"name":"mintedAt","type":"uint256","internalType":"uint256"}]}],"stateMutability":"view"},{"type":"function","name":"getRoleAdmin","inputs":[{"name":"role","type":"bytes32","internalType":"bytes32"}],"outputs":[{"name":"","type":"bytes32","internalType":"bytes32"}],"stateMutability":"view"},{"type":"function","name":"grantRole","inputs":[{"name":"role","type":"bytes32","internalType":"bytes32"},{"name":"account","type":"address","internalType":"address"}],"outputs":[],"stateMutability":"nonpayable"},{"type":"function","name":"hasRole","inputs":[{"name":"role","type":"bytes32","internalType":"bytes32"},{"name":"account","type":"address","internalType":"address"}],"outputs":[{"name":"","type":"bool","internalType":"bool"}],"stateMutability":"view"},{"type":"function","name":"isApprovedForAll","inputs":[{"name":"account","type":"address","internalType":"address"},{"name":"operator","type":"address","internalType":"address"}],"outputs":[{"name":"","type":"bool","internalType":"bool"}],"stateMutability":"view"},{"type":"function","name":"mint","inputs":[{"name":"to","type":"address","internalType":"address"},{"name":"psaSerialNumber","type":"string","internalType":"string"},{"name":"grade","type":"uint8","internalType":"uint8"},{"name":"cardName","type":"string","internalType":"string"},{"name":"setName","type":"string","internalType":"string"},{"name":"symbol","type":"string","internalType":"string"}],"outputs":[{"name":"tokenId","type":"uint256","internalType":"uint256"}],"stateMutability":"nonpayable"},{"type":"function","name":"pause","inputs":[],"outputs":[],"stateMutability":"nonpayable"},{"type":"function","name":"paused","inputs":[],"outputs":[{"name":"","type":"bool","internalType":"bool"}],"stateMutability":"view"},{"type":"function","name":"renounceRole","inputs":[{"name":"role","type":"bytes32","internalType":"bytes32"},{"name":"callerConfirmation","type":"address","internalType":"address"}],"outputs":[],"stateMutability":"nonpayable"},{"type":"function","name":"revokeRole","inputs":[{"name":"role","type":"bytes32","internalType":"bytes32"},{"name":"account","type":"address","internalType":"address"}],"outputs":[],"stateMutability":"nonpayable"},{"type":"function","name":"royaltyInfo","inputs":[{"name":"tokenId","type":"uint256","internalType":"uint256"},{"name":"salePrice","type":"uint256","internalType":"uint256"}],"outputs":[{"name":"receiver","type":"address","internalType":"address"},{"name":"amount","type":"uint256","internalType":"uint256"}],"stateMutability":"view"},{"type":"function","name":"safeBatchTransferFrom","inputs":[{"name":"from","type":"address","internalType":"address"},{"name":"to","type":"address","internalType":"address"},{"name":"ids","type":"uint256[]","internalType":"uint256[]"},{"name":"values","type":"uint256[]","internalType":"uint256[]"},{"name":"data","type":"bytes","internalType":"bytes"}],"outputs":[],"stateMutability":"nonpayable"},{"type":"function","name":"safeTransferFrom","inputs":[{"name":"from","type":"address","internalType":"address"},{"name":"to","type":"address","internalType":"address"},{"name":"id","type":"uint256","internalType":"uint256"},{"name":"value","type":"uint256","internalType":"uint256"},{"name":"data","type":"bytes","internalType":"bytes"}],"outputs":[],"stateMutability":"nonpayable"},{"type":"function","name":"setApprovalForAll","inputs":[{"name":"operator","type":"address","internalType":"address"},{"name":"approved","type":"bool","internalType":"bool"}],"outputs":[],"stateMutability":"nonpayable"},{"type":"function","name":"setDefaultRoyalty","inputs":[{"name":"receiver","type":"address","internalType":"address"},{"name":"feeNumerator","type":"uint96","internalType":"uint96"}],"outputs":[],"stateMutability":"nonpayable"},{"type":"function","name":"setURI","inputs":[{"name":"newUri","type":"string","internalType":"string"}],"outputs":[],"stateMutability":"nonpayable"},{"type":"function","name":"supportsInterface","inputs":[{"name":"interfaceId","type":"bytes4","internalType":"bytes4"}],"outputs":[{"name":"","type":"bool","internalType":"bool"}],"stateMutability":"view"},{"type":"function","name":"tokenExists","inputs":[{"name":"tokenId","type":"uint256","internalType":"uint256"}],"outputs":[{"name":"","type":"bool","internalType":"bool"}],"stateMutability":"view"},{"type":"function","name":"tokenIdForSerial","inputs":[{"name":"psaSerialNumber","type":"string","internalType":"string"}],"outputs":[{"name":"","type":"uint256","internalType":"uint256"}],"stateMutability":"view"},{"type":"function","name":"unpause","inputs":[],"outputs":[],"stateMutability":"nonpayable"},{"type":"function","name":"uri","inputs":[{"name":"","type":"uint256","internalType":"uint256"}],"outputs":[{"name":"","type":"string","internalType":"string"}],"stateMutability":"view"},{"type":"event","name":"ApprovalForAll","inputs":[{"name":"account","type":"address","indexed":true,"internalType":"address"},{"name":"operator","type":"address","indexed":true,"internalType":"address"},{"name":"approved","type":"bool","indexed":false,"internalType":"bool"}],"anonymous":false},{"type":"event","name":"CardBurned","inputs":[{"name":"from","type":"address","indexed":true,"internalType":"address"},{"name":"tokenId","type":"uint256","indexed":true,"internalType":"uint256"},{"name":"psaSerialNumber","type":"string","indexed":false,"internalType":"string"}],"anonymous":false},{"type":"event","name":"CardMinted","inputs":[{"name":"to","type":"address","indexed":true,"internalType":"address"},{"name":"tokenId","type":"uint256","indexed":true,"internalType":"uint256"},{"name":"psaSerialNumber","type":"string","indexed":false,"internalType":"string"},{"name":"grade","type":"uint8","indexed":false,"internalType":"uint8"},{"name":"cardName","type":"string","indexed":false,"internalType":"string"}],"anonymous":false},{"type":"event","name":"Paused","inputs":[{"name":"account","type":"address","indexed":false,"internalType":"address"}],"anonymous":false},{"type":"event","name":"RoleAdminChanged","inputs":[{"name":"role","type":"bytes32","indexed":true,"internalType":"bytes32"},{"name":"previousAdminRole","type":"bytes32","indexed":true,"internalType":"bytes32"},{"name":"newAdminRole","type":"bytes32","indexed":true,"internalType":"bytes32"}],"anonymous":false},{"type":"event","name":"RoleGranted","inputs":[{"name":"role","type":"bytes32","indexed":true,"internalType":"bytes32"},{"name":"account","type":"address","indexed":true,"internalType":"address"},{"name":"sender","type":"address","indexed":true,"internalType":"address"}],"anonymous":false},{"type":"event","name":"RoleRevoked","inputs":[{"name":"role","type":"bytes32","indexed":true,"internalType":"bytes32"},{"name":"account","type":"address","indexed":true,"internalType":"address"},{"name":"sender","type":"address","indexed":true,"internalType":"address"}],"anonymous":false},{"type":"event","name":"TransferBatch","inputs":[{"name":"operator","type":"address","indexed":true,"internalType":"address"},{"name":"from","type":"address","indexed":true,"internalType":"address"},{"name":"to","type":"address","indexed":true,"internalType":"address"},{"name":"ids","type":"uint256[]","indexed":false,"internalType":"uint256[]"},{"name":"values","type":"uint256[]","indexed":false,"internalType":"uint256[]"}],"anonymous":false},{"type":"event","name":"TransferSingle","inputs":[{"name":"operator","type":"address","indexed":true,"internalType":"address"},{"name":"from","type":"address","indexed":true,"internalType":"address"},{"name":"to","type":"address","indexed":true,"internalType":"address"},{"name":"id","type":"uint256","indexed":false,"internalType":"uint256"},{"name":"value","type":"uint256","indexed":false,"internalType":"uint256"}],"anonymous":false},{"type":"event","name":"URI","inputs":[{"name":"value","type":"string","indexed":false,"internalType":"string"},{"name":"id","type":"uint256","indexed":true,"internalType":"uint256"}],"anonymous":false},{"type":"event","name":"Unpaused","inputs":[{"name":"account","type":"address","indexed":false,"internalType":"address"}],"anonymous":false},{"type":"error","name":"AccessControlBadConfirmation","inputs":[]},{"type":"error","name":"AccessControlUnauthorizedAccount","inputs":[{"name":"account","type":"address","internalType":"address"},{"name":"neededRole","type":"bytes32","internalType":"bytes32"}]},{"type":"error","name":"AlreadyMinted","inputs":[{"name":"psaSerialNumber","type":"string","internalType":"string"}]},{"type":"error","name":"ERC1155InsufficientBalance","inputs":[{"name":"sender","type":"address","internalType":"address"},{"name":"balance","type":"uint256","internalType":"uint256"},{"name":"needed","type":"uint256","internalType":"uint256"},{"name":"tokenId","type":"uint256","internalType":"uint256"}]},{"type":"error","name":"ERC1155InvalidApprover","inputs":[{"name":"approver","type":"address","internalType":"address"}]},{"type":"error","name":"ERC1155InvalidArrayLength","inputs":[{"name":"idsLength","type":"uint256","internalType":"uint256"},{"name":"valuesLength","type":"uint256","internalType":"uint256"}]},{"type":"error","name":"ERC1155InvalidOperator","inputs":[{"name":"operator","type":"address","internalType":"address"}]},{"type":"error","name":"ERC1155InvalidReceiver","inputs":[{"name":"receiver","type":"address","internalType":"address"}]},{"type":"error","name":"ERC1155InvalidSender","inputs":[{"name":"sender","type":"address","internalType":"address"}]},{"type":"error","name":"ERC1155MissingApprovalForAll","inputs":[{"name":"operator","type":"address","internalType":"address"},{"name":"owner","type":"address","internalType":"address"}]},{"type":"error","name":"ERC2981InvalidDefaultRoyalty","inputs":[{"name":"numerator","type":"uint256","internalType":"uint256"},{"name":"denominator","type":"uint256","internalType":"uint256"}]},{"type":"error","name":"ERC2981InvalidDefaultRoyaltyReceiver","inputs":[{"name":"receiver","type":"address","internalType":"address"}]},{"type":"error","name":"ERC2981InvalidTokenRoyalty","inputs":[{"name":"tokenId","type":"uint256","internalType":"uint256"},{"name":"numerator","type":"uint256","internalType":"uint256"},{"name":"denominator","type":"uint256","internalType":"uint256"}]},{"type":"error","name":"ERC2981InvalidTokenRoyaltyReceiver","inputs":[{"name":"tokenId","type":"uint256","internalType":"uint256"},{"name":"receiver","type":"address","internalType":"address"}]},{"type":"error","name":"EmptyString","inputs":[{"name":"field","type":"string","internalType":"string"}]},{"type":"error","name":"EnforcedPause","inputs":[]},{"type":"error","name":"ExpectedPause","inputs":[]},{"type":"error","name":"InvalidGrade","inputs":[{"name":"grade","type":"uint8","internalType":"uint8"}]},{"type":"error","name":"TokenNotFound","inputs":[{"name":"tokenId","type":"uint256","internalType":"uint256"}]}],"bytecode":{"object":"0x608060405234801562000010575f80fd5b5060405162002a5b38038062002a5b83398101604081905262000033916200023c565b806200003f81620000bc565b506200004c5f83620000ce565b50620000797f9f2df0fed2c77648de5860a4cc508cd0818c85b8b8a1ab4ceeef8d981c8956a683620000ce565b50620000a67f3c11d16cbaffd01df69ce1c404f6340ee057498f5f00246190ea54220576a84883620000ce565b50620000b48260fa6200017e565b505062000480565b6002620000ca8282620003b4565b5050565b5f8281526005602090815260408083206001600160a01b038516845290915281205460ff1662000175575f8381526005602090815260408083206001600160a01b03861684529091529020805460ff191660011790556200012c3390565b6001600160a01b0316826001600160a01b0316847f2f8788117e7eff1d82e926ec794901d17c78024a50270940304540a733656f0d60405160405180910390a450600162000178565b505f5b92915050565b6127106001600160601b038216811015620001c357604051636f483d0960e01b81526001600160601b0383166004820152602481018290526044015b60405180910390fd5b6001600160a01b038316620001ee57604051635b6cc80560e11b81525f6004820152602401620001ba565b50604080518082019091526001600160a01b039092168083526001600160601b039091166020909201829052600160a01b90910217600355565b634e487b7160e01b5f52604160045260245ffd5b5f80604083850312156200024e575f80fd5b82516001600160a01b038116811462000265575f80fd5b602084810151919350906001600160401b038082111562000284575f80fd5b818601915086601f83011262000298575f80fd5b815181811115620002ad57620002ad62000228565b604051601f8201601f19908116603f01168101908382118183101715620002d857620002d862000228565b816040528281528986848701011115620002f0575f80fd5b5f93505b82841015620003135784840186015181850187015292850192620002f4565b5f8684830101528096505050505050509250929050565b600181811c908216806200033f57607f821691505b6020821081036200035e57634e487b7160e01b5f52602260045260245ffd5b50919050565b601f821115620003af57805f5260205f20601f840160051c810160208510156200038b5750805b601f840160051c820191505b81811015620003ac575f815560010162000397565b50505b505050565b81516001600160401b03811115620003d057620003d062000228565b620003e881620003e184546200032a565b8462000364565b602080601f8311600181146200041e575f8415620004065750858301515b5f19600386901b1c1916600185901b17855562000478565b5f85815260208120601f198616915b828110156200044e578886015182559484019460019091019084016200042d565b50858210156200046c57878501515f19600388901b60f8161c191681555b505060018460011b0185555b505050505050565b6125cd806200048e5f395ff3fe608060405234801561000f575f80fd5b506004361061019f575f3560e01c80634e1273f4116100f3578063a217fddf11610093578063d53913931161006e578063d5391393146103cb578063d547741f146103f2578063e985e9c514610405578063f242432a14610440575f80fd5b8063a217fddf14610391578063a22cb46514610398578063a574cea4146103ab575f80fd5b80636c288119116100ce5780636c288119146103505780638456cb591461036357806391d148541461036b5780639dc29fac1461037e575f80fd5b80634e1273f4146103125780635c975abb146103325780636ae0b8e61461033d575f80fd5b8063248a9ca31161015e5780632eb2c2d6116101395780632eb2c2d6146102d15780632f2ff15d146102e457806336568abe146102f75780633f4ba83a1461030a575f80fd5b8063248a9ca314610256578063282c51f3146102785780632a55205a1461029f575f80fd5b8062923f9e146101a3578062fdd58e146101da57806301ffc9a7146101fb57806302fe53051461020e57806304634d8d146102235780630e89341c14610236575b5f80fd5b6101c56101b1366004611b4a565b5f9081526008602052604090205460ff1690565b60405190151581526020015b60405180910390f35b6101ed6101e8366004611b7c565b610453565b6040519081526020016101d1565b6101c5610209366004611bb9565b61047a565b61022161021c366004611c19565b610484565b005b610221610231366004611c58565b6104d1565b610249610244366004611b4a565b6104e5565b6040516101d19190611ce5565b6101ed610264366004611b4a565b5f9081526005602052604090206001015490565b6101ed7f3c11d16cbaffd01df69ce1c404f6340ee057498f5f00246190ea54220576a84881565b6102b26102ad366004611cf7565b610577565b604080516001600160a01b0390931683526020830191909152016101d1565b6102216102df366004611e57565b6105fc565b6102216102f2366004611efa565b61061b565b610221610305366004611efa565b610645565b610221610678565b610325610320366004611f24565b61068d565b6040516101d19190612018565b60065460ff166101c5565b6101ed61034b366004611c19565b61075d565b6101ed61035e36600461203a565b610787565b610221610b0d565b6101c5610379366004611efa565b610b1f565b61022161038c366004611b7c565b610b49565b6101ed5f81565b6102216103a636600461211b565b610d1b565b6103be6103b9366004611b4a565b610d2a565b6040516101d19190612149565b6101ed7f9f2df0fed2c77648de5860a4cc508cd0818c85b8b8a1ab4ceeef8d981c8956a681565b610221610400366004611efa565b61100e565b6101c56104133660046121e1565b6001600160a01b039182165f90815260016020908152604080832093909416825291909152205460ff1690565b61022161044e366004612209565b611032565b5f818152602081815260408083206001600160a01b03861684529091529020545b92915050565b5f61047482611048565b5f61048e8161106c565b6104cc83838080601f0160208091040260200160405190810160405280939291908181526020018383808284375f9201919091525061107692505050565b505050565b5f6104db8161106c565b6104cc8383611082565b6060600280546104f490612269565b80601f016020809104026020016040519081016040528092919081815260200182805461052090612269565b801561056b5780601f106105425761010080835404028352916020019161056b565b820191905f5260205f20905b81548152906001019060200180831161054e57829003601f168201915b50505050509050919050565b5f82815260046020526040812080548291906001600160a01b03811690600160a01b90046001600160601b0316816105ca5750506003546001600160a01b03811690600160a01b90046001600160601b03165b5f6127106105e16001600160601b038416896122b5565b6105eb91906122cc565b9295509193505050505b9250929050565b610607335b86611124565b610614858585858561119c565b5050505050565b5f828152600560205260409020600101546106358161106c565b61063f83836111fc565b50505050565b6001600160a01b038116331461066e5760405163334bd91960e11b815260040160405180910390fd5b6104cc828261128d565b5f6106828161106c565b61068a6112f8565b50565b606081518351146106c35781518351604051635b05999160e01b8152600481019290925260248201526044015b60405180910390fd5b5f835167ffffffffffffffff8111156106de576106de611d17565b604051908082528060200260200182016040528015610707578160200160208202803683370190505b5090505f5b84518110156107555760208082028601015161073090602080840287010151610453565b828281518110610742576107426122eb565b602090810291909101015260010161070c565b509392505050565b5f600983836040516107709291906122ff565b908152602001604051809103902054905092915050565b5f7f9f2df0fed2c77648de5860a4cc508cd0818c85b8b8a1ab4ceeef8d981c8956a66107b28161106c565b6107ba61134a565b60088960ff1610806107cf5750600a8960ff16115b156107f257604051631f74eb2360e21b815260ff8a1660048201526024016106ba565b5f8a9003610835576040516318a996bb60e21b815260206004820152600f60248201526e3839b0a9b2b934b0b6273ab6b132b960891b60448201526064016106ba565b5f879003610871576040516318a996bb60e21b8152602060048201526008602482015267636172644e616d6560c01b60448201526064016106ba565b60098b8b6040516108839291906122ff565b9081526020016040518091039020545f146108b5578a8a604051630226686160e21b81526004016106ba929190612336565b8a8a6040516020016108c89291906122ff565b60408051601f19818403018152828252805160209182012060e0601f8f018390049092028401820190925260c083018d81529194508291908e908e90819085018382808284375f9201919091525050509082525060ff8b1660208083019190915260408051601f8c0183900483028101830182528b8152920191908b908b90819084018382808284375f92019190915250505090825250604080516020601f8a01819004810282018101909252888152918101919089908990819084018382808284375f92019190915250505090825250604080516020601f8801819004810282018101909252868152918101919087908790819084018382808284375f92018290525093855250504260209384015250848152600790915260409020815181906109f39082612395565b50602082015160018201805460ff191660ff90921691909117905560408201516002820190610a229082612395565b5060608201516003820190610a379082612395565b5060808201516004820190610a4c9082612395565b5060a091909101516005909101555f8281526008602052604090819020805460ff19166001179055518290600990610a87908e908e906122ff565b908152602001604051809103902081905550610ab48c83600160405180602001604052805f815250611370565b818c6001600160a01b03167f8aabce9595eee693dbcd18eb15c03a1c73346e0eb534cf1a925f247cfb0793288d8d8d8d8d604051610af6959493929190612451565b60405180910390a3509a9950505050505050505050565b5f610b178161106c565b61068a6113d4565b5f9182526005602090815260408084206001600160a01b0393909316845291905290205460ff1690565b7f3c11d16cbaffd01df69ce1c404f6340ee057498f5f00246190ea54220576a848610b738161106c565b5f8281526008602052604090205460ff16610ba4576040516306caeb1360e41b8152600481018390526024016106ba565b5f8281526007602052604081208054610bbc90612269565b80601f0160208091040260200160405190810160405280929190818152602001828054610be890612269565b8015610c335780601f10610c0a57610100808354040283529160200191610c33565b820191905f5260205f20905b815481529060010190602001808311610c1657829003601f168201915b50505050509050600981604051610c4a919061248c565b90815260408051602092819003830190205f908190558581526007909252812090610c758282611b00565b60018201805460ff19169055610c8e600283015f611b00565b610c9b600383015f611b00565b610ca8600483015f611b00565b505f600591909101819055838152600860205260409020805460ff19169055610cd384846001611411565b82846001600160a01b03167fcb7d10e9f8e3fb38cc1c7bff7b7b10771631f10d783bad9859b88462dc9a087a83604051610d0d9190611ce5565b60405180910390a350505050565b610d26338383611478565b5050565b610d646040518060c00160405280606081526020015f60ff1681526020016060815260200160608152602001606081526020015f81525090565b5f8281526008602052604090205460ff16610d95576040516306caeb1360e41b8152600481018390526024016106ba565b5f8281526007602052604090819020815160c08101909252805482908290610dbc90612269565b80601f0160208091040260200160405190810160405280929190818152602001828054610de890612269565b8015610e335780601f10610e0a57610100808354040283529160200191610e33565b820191905f5260205f20905b815481529060010190602001808311610e1657829003601f168201915b5050509183525050600182015460ff166020820152600282018054604090920191610e5d90612269565b80601f0160208091040260200160405190810160405280929190818152602001828054610e8990612269565b8015610ed45780601f10610eab57610100808354040283529160200191610ed4565b820191905f5260205f20905b815481529060010190602001808311610eb757829003601f168201915b50505050508152602001600382018054610eed90612269565b80601f0160208091040260200160405190810160405280929190818152602001828054610f1990612269565b8015610f645780601f10610f3b57610100808354040283529160200191610f64565b820191905f5260205f20905b815481529060010190602001808311610f4757829003601f168201915b50505050508152602001600482018054610f7d90612269565b80601f0160208091040260200160405190810160405280929190818152602001828054610fa990612269565b8015610ff45780601f10610fcb57610100808354040283529160200191610ff4565b820191905f5260205f20905b815481529060010190602001808311610fd757829003601f168201915b505050505081526020016005820154815250509050919050565b5f828152600560205260409020600101546110288161106c565b61063f838361128d565b61103b33610601565b6106148585858585611535565b5f6001600160e01b03198216637965db0b60e01b14806104745750610474826115c2565b61068a81336115e6565b6002610d268282612395565b6127106001600160601b0382168110156110c157604051636f483d0960e01b81526001600160601b0383166004820152602481018290526044016106ba565b6001600160a01b0383166110ea57604051635b6cc80560e11b81525f60048201526024016106ba565b50604080518082019091526001600160a01b039092168083526001600160601b039091166020909201829052600160a01b90910217600355565b816001600160a01b0316816001600160a01b03161415801561116b57506001600160a01b038082165f9081526001602090815260408083209386168352929052205460ff16155b15610d265760405163711bec9160e11b81526001600160a01b038084166004830152821660248201526044016106ba565b6001600160a01b0384166111c557604051632bfa23e760e11b81525f60048201526024016106ba565b6001600160a01b0385166111ed57604051626a0d4560e21b81525f60048201526024016106ba565b6106148585858585600161161f565b5f6112078383610b1f565b611286575f8381526005602090815260408083206001600160a01b03861684529091529020805460ff1916600117905561123e3390565b6001600160a01b0316826001600160a01b0316847f2f8788117e7eff1d82e926ec794901d17c78024a50270940304540a733656f0d60405160405180910390a4506001610474565b505f610474565b5f6112988383610b1f565b15611286575f8381526005602090815260408083206001600160a01b0386168085529252808320805460ff1916905551339286917ff6391f5c32d9c69d2a47ea670b442974b53935d1edc7fd64eb21e047a839171b9190a4506001610474565b611300611677565b6006805460ff191690557f5db9ee0a495bf2e6ff9c91a7834c1ba4fdd244a5e8aa4e537bd38aeae4b073aa335b6040516001600160a01b03909116815260200160405180910390a1565b60065460ff161561136e5760405163d93c066560e01b815260040160405180910390fd5b565b6001600160a01b03841661139957604051632bfa23e760e11b81525f60048201526024016106ba565b604080516001808252602082018690528183019081526060820185905260808201909252906113cc5f878484878461161f565b505050505050565b6113dc61134a565b6006805460ff191660011790557f62e78cea01bee320cd4e420270b5ea74000d11b0c9f74754ebdbfc544b05a25861132d3390565b6001600160a01b03831661143957604051626a0d4560e21b81525f60048201526024016106ba565b604080516001808252602082018590528183019081526060820184905260a082019092525f60808201818152919291610614918791859085908361161f565b6001600160a01b0383166114a157604051631f18c42760e11b81525f60048201526024016106ba565b6001600160a01b0382166114c95760405162ced3e160e81b81525f60048201526024016106ba565b6001600160a01b038381165f81815260016020908152604080832094871680845294825291829020805460ff191686151590811790915591519182527f17307eab39ab6107e8899845ad3d59bd9653f200f220920489ca2b5937696c31910160405180910390a3505050565b6001600160a01b03841661155e57604051632bfa23e760e11b81525f60048201526024016106ba565b6001600160a01b03851661158657604051626a0d4560e21b81525f60048201526024016106ba565b604080516001808252602082018690528183019081526060820185905260808201909252906115b987878484875f61161f565b50505050505050565b5f6001600160e01b0319821663152a902d60e11b148061047457506104748261169a565b6115f08282610b1f565b610d265760405163e2517d3f60e01b81526001600160a01b0382166004820152602481018390526044016106ba565b61162b868686866116e9565b6001600160a01b038516156113cc573381156116545761164f8188888888886118f8565b6115b9565b6020858101519085015161166c838a8a85858a611a19565b505050505050505050565b60065460ff1661136e57604051638dfc202b60e01b815260040160405180910390fd5b5f6001600160e01b03198216636cdb3d1360e11b14806116ca57506001600160e01b031982166303a24d0760e21b145b8061047457506301ffc9a760e01b6001600160e01b0319831614610474565b80518251146117185781518151604051635b05999160e01b8152600481019290925260248201526044016106ba565b335f5b835181101561181a576020818102858101820151908501909101516001600160a01b038816156117cc575f828152602081815260408083206001600160a01b038c168452909152902054818110156117a6576040516303dee4c560e01b81526001600160a01b038a1660048201526024810182905260448101839052606481018490526084016106ba565b5f838152602081815260408083206001600160a01b038d16845290915290209082900390555b6001600160a01b03871615611810575f828152602081815260408083206001600160a01b038b1684529091528120805483929061180a9084906124a7565b90915550505b505060010161171b565b50825160010361189a5760208301515f906020840151909150856001600160a01b0316876001600160a01b0316846001600160a01b03167fc3d58168c5ae7397731d063d5bbf3d657854427343f4c083240f7aacaa2d0f62858560405161188b929190918252602082015260400190565b60405180910390a45050610614565b836001600160a01b0316856001600160a01b0316826001600160a01b03167f4a39dc06d4c0dbc64b70af90fd698a233a518aa5d07e595d983b8c0526c8f7fb86866040516118e99291906124ba565b60405180910390a45050505050565b6001600160a01b0384163b156113cc5760405163bc197c8160e01b81526001600160a01b0385169063bc197c819061193c90899089908890889088906004016124e7565b6020604051808303815f875af1925050508015611976575060408051601f3d908101601f1916820190925261197391810190612538565b60015b6119dd573d8080156119a3576040519150601f19603f3d011682016040523d82523d5f602084013e6119a8565b606091505b5080515f036119d557604051632bfa23e760e11b81526001600160a01b03861660048201526024016106ba565b805160208201fd5b6001600160e01b0319811663bc197c8160e01b146115b957604051632bfa23e760e11b81526001600160a01b03861660048201526024016106ba565b6001600160a01b0384163b156113cc5760405163f23a6e6160e01b81526001600160a01b0385169063f23a6e6190611a5d9089908990889088908890600401612553565b6020604051808303815f875af1925050508015611a97575060408051601f3d908101601f19168201909252611a9491810190612538565b60015b611ac4573d8080156119a3576040519150601f19603f3d011682016040523d82523d5f602084013e6119a8565b6001600160e01b0319811663f23a6e6160e01b146115b957604051632bfa23e760e11b81526001600160a01b03861660048201526024016106ba565b508054611b0c90612269565b5f825580601f10611b1b575050565b601f0160209004905f5260205f209081019061068a91905b80821115611b46575f8155600101611b33565b5090565b5f60208284031215611b5a575f80fd5b5035919050565b80356001600160a01b0381168114611b77575f80fd5b919050565b5f8060408385031215611b8d575f80fd5b611b9683611b61565b946020939093013593505050565b6001600160e01b03198116811461068a575f80fd5b5f60208284031215611bc9575f80fd5b8135611bd481611ba4565b9392505050565b5f8083601f840112611beb575f80fd5b50813567ffffffffffffffff811115611c02575f80fd5b6020830191508360208285010111156105f5575f80fd5b5f8060208385031215611c2a575f80fd5b823567ffffffffffffffff811115611c40575f80fd5b611c4c85828601611bdb565b90969095509350505050565b5f8060408385031215611c69575f80fd5b611c7283611b61565b915060208301356001600160601b0381168114611c8d575f80fd5b809150509250929050565b5f5b83811015611cb2578181015183820152602001611c9a565b50505f910152565b5f8151808452611cd1816020860160208601611c98565b601f01601f19169290920160200192915050565b602081525f611bd46020830184611cba565b5f8060408385031215611d08575f80fd5b50508035926020909101359150565b634e487b7160e01b5f52604160045260245ffd5b604051601f8201601f1916810167ffffffffffffffff81118282101715611d5457611d54611d17565b604052919050565b5f67ffffffffffffffff821115611d7557611d75611d17565b5060051b60200190565b5f82601f830112611d8e575f80fd5b81356020611da3611d9e83611d5c565b611d2b565b8083825260208201915060208460051b870101935086841115611dc4575f80fd5b602086015b84811015611de05780358352918301918301611dc9565b509695505050505050565b5f82601f830112611dfa575f80fd5b813567ffffffffffffffff811115611e1457611e14611d17565b611e27601f8201601f1916602001611d2b565b818152846020838601011115611e3b575f80fd5b816020850160208301375f918101602001919091529392505050565b5f805f805f60a08688031215611e6b575f80fd5b611e7486611b61565b9450611e8260208701611b61565b9350604086013567ffffffffffffffff80821115611e9e575f80fd5b611eaa89838a01611d7f565b94506060880135915080821115611ebf575f80fd5b611ecb89838a01611d7f565b93506080880135915080821115611ee0575f80fd5b50611eed88828901611deb565b9150509295509295909350565b5f8060408385031215611f0b575f80fd5b82359150611f1b60208401611b61565b90509250929050565b5f8060408385031215611f35575f80fd5b823567ffffffffffffffff80821115611f4c575f80fd5b818501915085601f830112611f5f575f80fd5b81356020611f6f611d9e83611d5c565b82815260059290921b84018101918181019089841115611f8d575f80fd5b948201945b83861015611fb257611fa386611b61565b82529482019490820190611f92565b96505086013592505080821115611fc7575f80fd5b50611fd485828601611d7f565b9150509250929050565b5f815180845260208085019450602084015f5b8381101561200d57815187529582019590820190600101611ff1565b509495945050505050565b602081525f611bd46020830184611fde565b803560ff81168114611b77575f80fd5b5f805f805f805f805f8060c08b8d031215612053575f80fd5b61205c8b611b61565b995060208b013567ffffffffffffffff80821115612078575f80fd5b6120848e838f01611bdb565b909b50995089915061209860408e0161202a565b985060608d01359150808211156120ad575f80fd5b6120b98e838f01611bdb565b909850965060808d01359150808211156120d1575f80fd5b6120dd8e838f01611bdb565b909650945060a08d01359150808211156120f5575f80fd5b506121028d828e01611bdb565b915080935050809150509295989b9194979a5092959850565b5f806040838503121561212c575f80fd5b61213583611b61565b915060208301358015158114611c8d575f80fd5b602081525f825160c0602084015261216460e0840182611cba565b905060ff60208501511660408401526040840151601f198085840301606086015261218f8383611cba565b925060608601519150808584030160808601526121ac8383611cba565b925060808601519150808584030160a0860152506121ca8282611cba565b91505060a084015160c08401528091505092915050565b5f80604083850312156121f2575f80fd5b6121fb83611b61565b9150611f1b60208401611b61565b5f805f805f60a0868803121561221d575f80fd5b61222686611b61565b945061223460208701611b61565b93506040860135925060608601359150608086013567ffffffffffffffff81111561225d575f80fd5b611eed88828901611deb565b600181811c9082168061227d57607f821691505b60208210810361229b57634e487b7160e01b5f52602260045260245ffd5b50919050565b634e487b7160e01b5f52601160045260245ffd5b8082028115828204841417610474576104746122a1565b5f826122e657634e487b7160e01b5f52601260045260245ffd5b500490565b634e487b7160e01b5f52603260045260245ffd5b818382375f9101908152919050565b81835281816020850137505f828201602090810191909152601f909101601f19169091010190565b602081525f61234960208301848661230e565b949350505050565b601f8211156104cc57805f5260205f20601f840160051c810160208510156123765750805b601f840160051c820191505b81811015610614575f8155600101612382565b815167ffffffffffffffff8111156123af576123af611d17565b6123c3816123bd8454612269565b84612351565b602080601f8311600181146123f6575f84156123df5750858301515b5f19600386901b1c1916600185901b1785556113cc565b5f85815260208120601f198616915b8281101561242457888601518255948401946001909101908401612405565b508582101561244157878501515f19600388901b60f8161c191681555b5050505050600190811b01905550565b606081525f61246460608301878961230e565b60ff86166020840152828103604084015261248081858761230e565b98975050505050505050565b5f825161249d818460208701611c98565b9190910192915050565b80820180821115610474576104746122a1565b604081525f6124cc6040830185611fde565b82810360208401526124de8185611fde565b95945050505050565b6001600160a01b0386811682528516602082015260a0604082018190525f9061251290830186611fde565b82810360608401526125248186611fde565b905082810360808401526124808185611cba565b5f60208284031215612548575f80fd5b8151611bd481611ba4565b6001600160a01b03868116825285166020820152604081018490526060810183905260a0608082018190525f9061258c90830184611cba565b97965050505050505056fea264697066735822122010146458a29030b143c552bda0279ad8c09c66a3914bad91cd59d7c9539f62a664736f6c63430008180033","linkReferences":{}},"methodIdentifiers":{"BURNER_ROLE()":"282c51f3","DEFAULT_ADMIN_ROLE()":"a217fddf","MINTER_ROLE()":"d5391393","balanceOf(address,uint256)":"00fdd58e","balanceOfBatch(address[],uint256[])":"4e1273f4","burn(address,uint256)":"9dc29fac","getMetadata(uint256)":"a574cea4","getRoleAdmin(bytes32)":"248a9ca3","grantRole(bytes32,address)":"2f2ff15d","hasRole(bytes32,address)":"91d14854","isApprovedForAll(address,address)":"e985e9c5","mint(address,string,uint8,string,string,string)":"6c288119","pause()":"8456cb59","paused()":"5c975abb","renounceRole(bytes32,address)":"36568abe","revokeRole(bytes32,address)":"d547741f","royaltyInfo(uint256,uint256)":"2a55205a","safeBatchTransferFrom(address,address,uint256[],uint256[],bytes)":"2eb2c2d6","safeTransferFrom(address,address,uint256,uint256,bytes)":"f242432a","setApprovalForAll(address,bool)":"a22cb465","setDefaultRoyalty(address,uint96)":"04634d8d","setURI(string)":"02fe5305","supportsInterface(bytes4)":"01ffc9a7","tokenExists(uint256)":"00923f9e","tokenIdForSerial(string)":"6ae0b8e6","unpause()":"3f4ba83a","uri(uint256)":"0e89341c"},"id":58}