{"abi":[{"type":"constructor","inputs":[{"name":"_usdc","type":"address","internalType":"address"},{"name":"_cardNft","type":"address","internalType":"address"},{"name":"_feeRecipient","type":"address","internalType":"address"},{"name":"_owner","type":"address","internalType":"address"}],"stateMutability":"nonpayable"},{"type":"function","name":"DOMAIN_SEPARATOR","inputs":[],"outputs":[{"name":"","type":"bytes32","internalType":"bytes32"}],"stateMutability":"view"},{"type":"function","name":"FEE_DENOMINATOR","inputs":[],"outputs":[{"name":"","type":"uint256","internalType":"uint256"}],"stateMutability":"view"},{"type":"function","name":"MAX_FEE","inputs":[],"outputs":[{"name":"","type":"uint256","internalType":"uint256"}],"stateMutability":"view"},{"type":"function","name":"ORDER_TYPEHASH","inputs":[],"outputs":[{"name":"","type":"bytes32","internalType":"bytes32"}],"stateMutability":"view"},{"type":"function","name":"cancelOrders","inputs":[{"name":"nonces","type":"uint256[]","internalType":"uint256[]"}],"outputs":[],"stateMutability":"nonpayable"},{"type":"function","name":"cancelledNonces","inputs":[{"name":"","type":"address","internalType":"address"},{"name":"","type":"uint256","internalType":"uint256"}],"outputs":[{"name":"","type":"bool","internalType":"bool"}],"stateMutability":"view"},{"type":"function","name":"cardNft","inputs":[],"outputs":[{"name":"","type":"address","internalType":"contract IERC1155"}],"stateMutability":"view"},{"type":"function","name":"eip712Domain","inputs":[],"outputs":[{"name":"fields","type":"bytes1","internalType":"bytes1"},{"name":"name","type":"string","internalType":"string"},{"name":"version","type":"string","internalType":"string"},{"name":"chainId","type":"uint256","internalType":"uint256"},{"name":"verifyingContract","type":"address","internalType":"address"},{"name":"salt","type":"bytes32","internalType":"bytes32"},{"name":"extensions","type":"uint256[]","internalType":"uint256[]"}],"stateMutability":"view"},{"type":"function","name":"feeBps","inputs":[],"outputs":[{"name":"","type":"uint256","internalType":"uint256"}],"stateMutability":"view"},{"type":"function","name":"feeRecipient","inputs":[],"outputs":[{"name":"","type":"address","internalType":"address"}],"stateMutability":"view"},{"type":"function","name":"hashOrder","inputs":[{"name":"order","type":"tuple","internalType":"struct LedgerExchange.Order","components":[{"name":"maker","type":"address","internalType":"address"},{"name":"tokenId","type":"uint256","internalType":"uint256"},{"name":"priceUsdc","type":"uint256","internalType":"uint256"},{"name":"isBuy","type":"bool","internalType":"bool"},{"name":"quantity","type":"uint256","internalType":"uint256"},{"name":"nonce","type":"uint256","internalType":"uint256"},{"name":"expiry","type":"uint256","internalType":"uint256"}]}],"outputs":[{"name":"","type":"bytes32","internalType":"bytes32"}],"stateMutability":"view"},{"type":"function","name":"isOrderValid","inputs":[{"name":"order","type":"tuple","internalType":"struct LedgerExchange.Order","components":[{"name":"maker","type":"address","internalType":"address"},{"name":"tokenId","type":"uint256","internalType":"uint256"},{"name":"priceUsdc","type":"uint256","internalType":"uint256"},{"name":"isBuy","type":"bool","internalType":"bool"},{"name":"quantity","type":"uint256","internalType":"uint256"},{"name":"nonce","type":"uint256","internalType":"uint256"},{"name":"expiry","type":"uint256","internalType":"uint256"}]},{"name":"signature","type":"bytes","internalType":"bytes"}],"outputs":[{"name":"valid","type":"bool","internalType":"bool"},{"name":"reason","type":"string","internalType":"string"}],"stateMutability":"view"},{"type":"function","name":"owner","inputs":[],"outputs":[{"name":"","type":"address","internalType":"address"}],"stateMutability":"view"},{"type":"function","name":"pause","inputs":[],"outputs":[],"stateMutability":"nonpayable"},{"type":"function","name":"paused","inputs":[],"outputs":[{"name":"","type":"bool","internalType":"bool"}],"stateMutability":"view"},{"type":"function","name":"renounceOwnership","inputs":[],"outputs":[],"stateMutability":"nonpayable"},{"type":"function","name":"setFeeBps","inputs":[{"name":"_feeBps","type":"uint256","internalType":"uint256"}],"outputs":[],"stateMutability":"nonpayable"},{"type":"function","name":"setFeeRecipient","inputs":[{"name":"_feeRecipient","type":"address","internalType":"address"}],"outputs":[],"stateMutability":"nonpayable"},{"type":"function","name":"settle","inputs":[{"name":"buyOrder","type":"tuple","internalType":"struct LedgerExchange.Order","components":[{"name":"maker","type":"address","internalType":"address"},{"name":"tokenId","type":"uint256","internalType":"uint256"},{"name":"priceUsdc","type":"uint256","internalType":"uint256"},{"name":"isBuy","type":"bool","internalType":"bool"},{"name":"quantity","type":"uint256","internalType":"uint256"},{"name":"nonce","type":"uint256","internalType":"uint256"},{"name":"expiry","type":"uint256","internalType":"uint256"}]},{"name":"buySignature","type":"bytes","internalType":"bytes"},{"name":"sellOrder","type":"tuple","internalType":"struct LedgerExchange.Order","components":[{"name":"maker","type":"address","internalType":"address"},{"name":"tokenId","type":"uint256","internalType":"uint256"},{"name":"priceUsdc","type":"uint256","internalType":"uint256"},{"name":"isBuy","type":"bool","internalType":"bool"},{"name":"quantity","type":"uint256","internalType":"uint256"},{"name":"nonce","type":"uint256","internalType":"uint256"},{"name":"expiry","type":"uint256","internalType":"uint256"}]},{"name":"sellSignature","type":"bytes","internalType":"bytes"}],"outputs":[],"stateMutability":"nonpayable"},{"type":"function","name":"settledOrders","inputs":[{"name":"","type":"bytes32","internalType":"bytes32"}],"outputs":[{"name":"","type":"bool","internalType":"bool"}],"stateMutability":"view"},{"type":"function","name":"transferOwnership","inputs":[{"name":"newOwner","type":"address","internalType":"address"}],"outputs":[],"stateMutability":"nonpayable"},{"type":"function","name":"unpause","inputs":[],"outputs":[],"stateMutability":"nonpayable"},{"type":"function","name":"usdc","inputs":[],"outputs":[{"name":"","type":"address","internalType":"contract IERC20"}],"stateMutability":"view"},{"type":"event","name":"EIP712DomainChanged","inputs":[],"anonymous":false},{"type":"event","name":"FeeRecipientUpdated","inputs":[{"name":"oldRecipient","type":"address","indexed":false,"internalType":"address"},{"name":"newRecipient","type":"address","indexed":false,"internalType":"address"}],"anonymous":false},{"type":"event","name":"FeeUpdated","inputs":[{"name":"oldBps","type":"uint256","indexed":false,"internalType":"uint256"},{"name":"newBps","type":"uint256","indexed":false,"internalType":"uint256"}],"anonymous":false},{"type":"event","name":"OrderCancelled","inputs":[{"name":"maker","type":"address","indexed":true,"internalType":"address"},{"name":"nonce","type":"uint256","indexed":false,"internalType":"uint256"}],"anonymous":false},{"type":"event","name":"OrderSettled","inputs":[{"name":"buyOrderHash","type":"bytes32","indexed":true,"internalType":"bytes32"},{"name":"sellOrderHash","type":"bytes32","indexed":true,"internalType":"bytes32"},{"name":"buyer","type":"address","indexed":true,"internalType":"address"},{"name":"seller","type":"address","indexed":false,"internalType":"address"},{"name":"tokenId","type":"uint256","indexed":false,"internalType":"uint256"},{"name":"quantity","type":"uint256","indexed":false,"internalType":"uint256"},{"name":"priceUsdc","type":"uint256","indexed":false,"internalType":"uint256"},{"name":"feeUsdc","type":"uint256","indexed":false,"internalType":"uint256"}],"anonymous":false},{"type":"event","name":"OwnershipTransferred","inputs":[{"name":"previousOwner","type":"address","indexed":true,"internalType":"address"},{"name":"newOwner","type":"address","indexed":true,"internalType":"address"}],"anonymous":false},{"type":"event","name":"Paused","inputs":[{"name":"account","type":"address","indexed":false,"internalType":"address"}],"anonymous":false},{"type":"event","name":"Unpaused","inputs":[{"name":"account","type":"address","indexed":false,"internalType":"address"}],"anonymous":false},{"type":"error","name":"ECDSAInvalidSignature","inputs":[]},{"type":"error","name":"ECDSAInvalidSignatureLength","inputs":[{"name":"length","type":"uint256","internalType":"uint256"}]},{"type":"error","name":"ECDSAInvalidSignatureS","inputs":[{"name":"s","type":"bytes32","internalType":"bytes32"}]},{"type":"error","name":"EnforcedPause","inputs":[]},{"type":"error","name":"ExpectedPause","inputs":[]},{"type":"error","name":"FeeTooHigh","inputs":[{"name":"feeBps","type":"uint256","internalType":"uint256"}]},{"type":"error","name":"InvalidShortString","inputs":[]},{"type":"error","name":"InvalidSignature","inputs":[{"name":"orderHash","type":"bytes32","internalType":"bytes32"}]},{"type":"error","name":"OrderAlreadySettled","inputs":[{"name":"orderHash","type":"bytes32","internalType":"bytes32"}]},{"type":"error","name":"OrderCancelledError","inputs":[{"name":"orderHash","type":"bytes32","internalType":"bytes32"}]},{"type":"error","name":"OrderExpired","inputs":[{"name":"orderHash","type":"bytes32","internalType":"bytes32"}]},{"type":"error","name":"OwnableInvalidOwner","inputs":[{"name":"owner","type":"address","internalType":"address"}]},{"type":"error","name":"OwnableUnauthorizedAccount","inputs":[{"name":"account","type":"address","internalType":"address"}]},{"type":"error","name":"PriceMismatch","inputs":[{"name":"buyPrice","type":"uint256","internalType":"uint256"},{"name":"sellPrice","type":"uint256","internalType":"uint256"}]},{"type":"error","name":"QuantityMismatch","inputs":[{"name":"buyQty","type":"uint256","internalType":"uint256"},{"name":"sellQty","type":"uint256","internalType":"uint256"}]},{"type":"error","name":"ReentrancyGuardReentrantCall","inputs":[]},{"type":"error","name":"SafeERC20FailedOperation","inputs":[{"name":"token","type":"address","internalType":"address"}]},{"type":"error","name":"SideError","inputs":[]},{"type":"error","name":"StringTooLong","inputs":[{"name":"str","type":"string","internalType":"string"}]},{"type":"error","name":"ZeroAddress","inputs":[]}],"bytecode":{"object":"0x6101a0604052609660045534801562000016575f80fd5b5060405162001e5d38038062001e5d8339810160408190526200003991620002f3565b604080518082018252600e81526d4c656467657245786368616e676560901b602080830191909152825180840190935260018352603160f81b90830152829162000084825f6200020c565b61012052620000958160016200020c565b61014052815160208084019190912060e052815190820120610100524660a0526200012260e05161010051604080517f8b73c3c69bb8fe3d512ecc4cf759cc79239f7b179b0ffacaa9a75d522b39400f60208201529081019290925260608201524660808201523060a08201525f9060c00160405160208183030381529060405280519060200120905090565b60805250503060c05260017f9b779b17422d0df92223018b32b4d1fa46e071723d6817e2486d003becc55f00556001600160a01b0381166200017e57604051631e4fbdf760e01b81525f60048201526024015b60405180910390fd5b620001898162000244565b506001600160a01b0384161580620001a857506001600160a01b038316155b80620001bb57506001600160a01b038216155b15620001da5760405163d92e233d60e01b815260040160405180910390fd5b506001600160a01b039283166101605290821661018052600380546001600160a01b0319169190921617905562000529565b5f6020835110156200022b57620002238362000295565b90506200023e565b81620002388482620003eb565b5060ff90505b92915050565b600280546001600160a01b038381166001600160a01b0319831681179093556040519116919082907f8be0079c531659141344cd1fd0a4f28419497f9722a3daafe3b4186f6b6457e0905f90a35050565b5f80829050601f81511115620002c2578260405163305a27a960e01b8152600401620001759190620004b7565b8051620002cf8262000505565b179392505050565b80516001600160a01b0381168114620002ee575f80fd5b919050565b5f805f806080858703121562000307575f80fd5b6200031285620002d7565b93506200032260208601620002d7565b92506200033260408601620002d7565b91506200034260608601620002d7565b905092959194509250565b634e487b7160e01b5f52604160045260245ffd5b600181811c908216806200037657607f821691505b6020821081036200039557634e487b7160e01b5f52602260045260245ffd5b50919050565b601f821115620003e657805f5260205f20601f840160051c81016020851015620003c25750805b601f840160051c820191505b81811015620003e3575f8155600101620003ce565b50505b505050565b81516001600160401b038111156200040757620004076200034d565b6200041f8162000418845462000361565b846200039b565b602080601f83116001811462000455575f84156200043d5750858301515b5f19600386901b1c1916600185901b178555620004af565b5f85815260208120601f198616915b82811015620004855788860151825594840194600190910190840162000464565b5085821015620004a357878501515f19600388901b60f8161c191681555b505060018460011b0185555b505050505050565b5f602080835283518060208501525f5b81811015620004e557858101830151858201604001528201620004c7565b505f604082860101526040601f19601f8301168501019250505092915050565b8051602080830151919081101562000395575f1960209190910360031b1b16919050565b60805160a05160c05160e05161010051610120516101405161016051610180516118b9620005a45f395f818161020201526104f701525f8181610175015281816105e0015261062b01525f61106a01525f61103e01525f610c0901525f610be101525f610b3c01525f610b6601525f610b9001526118b95ff3fe608060405234801561000f575f80fd5b5060043610610148575f3560e01c80637cac25ae116100bf578063bc063e1a11610079578063bc063e1a146102f6578063c73d0361146102ff578063d73792a914610312578063e74b981b1461031b578063f2fde38b1461032e578063f973a20914610341575f80fd5b80637cac25ae1461026c5780637d4eb6a01461028e5780638456cb59146102af57806384b0196e146102b75780638da5cb5b146102d2578063b55fb574146102e3575f80fd5b80634d28f4fd116101105780634d28f4fd146101cc5780635c975abb146101df5780635d60c7b0146101fd5780636b9fa3e614610224578063715018a61461025157806372c27b6214610259575f80fd5b806324a9d8531461014c5780633644e515146101685780633e413bee146101705780633f4ba83a146101af57806346904840146101b9575b5f80fd5b61015560045481565b6040519081526020015b60405180910390f35b610155610368565b6101977f000000000000000000000000000000000000000000000000000000000000000081565b6040516001600160a01b03909116815260200161015f565b6101b7610376565b005b600354610197906001600160a01b031681565b6101b76101da3660046114ca565b610388565b600254600160a01b900460ff165b604051901515815260200161015f565b6101977f000000000000000000000000000000000000000000000000000000000000000081565b6101ed610232366004611578565b600560209081525f928352604080842090915290825290205460ff1681565b6101b7610720565b6101b76102673660046115a0565b610731565b6101ed61027a3660046115a0565b60066020525f908152604090205460ff1681565b6102a161029c3660046115b7565b6107a0565b60405161015f92919061164b565b6101b7610946565b6102bf610956565b60405161015f979695949392919061166d565b6002546001600160a01b0316610197565b6101b76102f1366004611704565b610998565b6101556101f481565b61015561030d366004611773565b610a4b565b61015561271081565b6101b7610329366004611794565b610a5b565b6101b761033c366004611794565b610af3565b6101557fcee5c0848f51861f728db20593f94b57f083f2aac2dd4d0b21cc6ea93ebbbf4f81565b5f610371610b30565b905090565b61037e610c59565b610386610c86565b565b610390610cdb565b610398610d09565b6103a860808701606088016117ad565b15806103bf57506103bf60808401606085016117ad565b156103dd5760405163d58bce3160e01b815260040160405180910390fd5b82604001358660400135101561041a5760408051631d6bbb8d60e11b81528188013560048201529084013560248201526044015b60405180910390fd5b826080013586608001351461045157604051631fbe047160e31b815260808088013560048301528401356024820152604401610411565b5f61045b87610d34565b90505f61046785610d34565b905061047588838989610dfd565b61048185828686610dfd565b5f828152600660205260408082208054600160ff19918216811790925584845282842080549091169091179055860135906104c06080880135836117e0565b90505f612710600454836104d491906117e0565b6104de91906117f7565b90505f6104eb8284611816565b90506001600160a01b037f00000000000000000000000000000000000000000000000000000000000000001663f242432a61052960208c018c611794565b8e5f01602081019061053b9190611794565b6040516001600160e01b031960e085901b1681526001600160a01b0392831660048201529116602482015260208c0135604482015260808c0135606482015260a060848201525f60a482015260c4015f604051808303815f87803b1580156105a1575f80fd5b505af11580156105b3573d5f803e3d5ffd5b5061060892506105c991505060208e018e611794565b6105d660208c018c611794565b6001600160a01b037f000000000000000000000000000000000000000000000000000000000000000016919084610f3f565b81156106555761065561061e60208e018e611794565b6003546001600160a01b037f0000000000000000000000000000000000000000000000000000000000000000811692911685610f3f565b61066260208d018d611794565b6001600160a01b031685877f1caf01f09e46772fcc60b7fb60f24c4ac4f35c305cad669cf36cd2b95b780e9161069b60208e018e611794565b8d602001358e608001358a896040516106e19594939291906001600160a01b03959095168552602085019390935260408401919091526060830152608082015260a00190565b60405180910390a450505050505061071860017f9b779b17422d0df92223018b32b4d1fa46e071723d6817e2486d003becc55f0055565b505050505050565b610728610c59565b6103865f610f7b565b610739610c59565b6101f481111561075f576040516303dc98a160e51b815260048101829052602401610411565b60045460408051918252602082018390527f528d9479e9f9889a87a3c30c7f7ba537e5e59c4c85a37733b16e57c62df61302910160405180910390a1600455565b5f60605f6107ad86610d34565b90508560c001354211156107e3575050604080518082019091526007815266195e1c1a5c995960ca1b60208201525f915061093e565b5f8181526006602052604090205460ff16156108215750506040805180820190915260078152661cd95d1d1b195960ca1b60208201525f915061093e565b60055f6108316020890189611794565b6001600160a01b0316815260208082019290925260409081015f90812060a08a0135825290925290205460ff161561088d57505060408051808201909152600981526818d85b98d95b1b195960ba1b60208201525f915061093e565b5f6108cd8287878080601f0160208091040260200160405190810160405280939291908181526020018383808284375f92019190915250610fcc92505050565b90506108dc6020880188611794565b6001600160a01b0316816001600160a01b031614610926575f6040518060400160405280600d81526020016c626164207369676e617475726560981b81525093509350505061093e565b600160405180602001604052805f8152509350935050505b935093915050565b61094e610c59565b610386610ff4565b5f6060805f805f6060610967611037565b61096f611063565b604080515f80825260208201909252600f60f81b9b939a50919850469750309650945092509050565b5f5b81811015610a4657335f9081526005602052604081206001918585858181106109c5576109c5611829565b602090810292909201358352508101919091526040015f20805460ff1916911515919091179055337fdd003742fb214507783ce004fe55f5ac14f89c6de4a7cd7487e47eb091c62265848484818110610a2057610a20611829565b90506020020135604051610a3691815260200190565b60405180910390a260010161099a565b505050565b5f610a5582610d34565b92915050565b610a63610c59565b6001600160a01b038116610a8a5760405163d92e233d60e01b815260040160405180910390fd5b600354604080516001600160a01b03928316815291831660208301527faaebcf1bfa00580e41d966056b48521fa9f202645c86d4ddf28113e617c1b1d3910160405180910390a1600380546001600160a01b0319166001600160a01b0392909216919091179055565b610afb610c59565b6001600160a01b038116610b2457604051631e4fbdf760e01b81525f6004820152602401610411565b610b2d81610f7b565b50565b5f306001600160a01b037f000000000000000000000000000000000000000000000000000000000000000016148015610b8857507f000000000000000000000000000000000000000000000000000000000000000046145b15610bb257507f000000000000000000000000000000000000000000000000000000000000000090565b610371604080517f8b73c3c69bb8fe3d512ecc4cf759cc79239f7b179b0ffacaa9a75d522b39400f60208201527f0000000000000000000000000000000000000000000000000000000000000000918101919091527f000000000000000000000000000000000000000000000000000000000000000060608201524660808201523060a08201525f9060c00160405160208183030381529060405280519060200120905090565b6002546001600160a01b031633146103865760405163118cdaa760e01b8152336004820152602401610411565b610c8e611090565b6002805460ff60a01b191690557f5db9ee0a495bf2e6ff9c91a7834c1ba4fdd244a5e8aa4e537bd38aeae4b073aa335b6040516001600160a01b03909116815260200160405180910390a1565b610ce36110ba565b60027f9b779b17422d0df92223018b32b4d1fa46e071723d6817e2486d003becc55f0055565b600254600160a01b900460ff16156103865760405163d93c066560e01b815260040160405180910390fd5b5f610a557fcee5c0848f51861f728db20593f94b57f083f2aac2dd4d0b21cc6ea93ebbbf4f610d666020850185611794565b60208501356040860135610d8060808801606089016117ad565b87608001358860a001358960c00135604051602001610de29897969594939291909788526001600160a01b03969096166020880152604087019490945260608601929092521515608085015260a084015260c083015260e08201526101000190565b604051602081830303815290604052805190602001206110fc565b8360c00135421115610e255760405163173bae5760e11b815260048101849052602401610411565b5f8381526006602052604090205460ff1615610e57576040516301a4ecfd60e11b815260048101849052602401610411565b60055f610e676020870187611794565b6001600160a01b0316815260208082019290925260409081015f90812060a0880135825290925290205460ff1615610eb557604051633784b55d60e21b815260048101849052602401610411565b5f610ef58484848080601f0160208091040260200160405190810160405280939291908181526020018383808284375f92019190915250610fcc92505050565b9050610f046020860186611794565b6001600160a01b0316816001600160a01b031614610f3857604051633335be5d60e11b815260048101859052602401610411565b5050505050565b610f4d848484846001611128565b610f7557604051635274afe760e01b81526001600160a01b0385166004820152602401610411565b50505050565b600280546001600160a01b038381166001600160a01b0319831681179093556040519116919082907f8be0079c531659141344cd1fd0a4f28419497f9722a3daafe3b4186f6b6457e0905f90a35050565b5f805f80610fda8686611195565b925092509250610fea82826111de565b5090949350505050565b610ffc610d09565b6002805460ff60a01b1916600160a01b1790557f62e78cea01bee320cd4e420270b5ea74000d11b0c9f74754ebdbfc544b05a258610cbe3390565b60606103717f00000000000000000000000000000000000000000000000000000000000000005f61129a565b60606103717f0000000000000000000000000000000000000000000000000000000000000000600161129a565b600254600160a01b900460ff1661038657604051638dfc202b60e01b815260040160405180910390fd5b7f9b779b17422d0df92223018b32b4d1fa46e071723d6817e2486d003becc55f005460020361038657604051633ee5aeb560e01b815260040160405180910390fd5b5f610a55611108610b30565b8360405161190160f01b8152600281019290925260228201526042902090565b6040516323b872dd60e01b5f8181526001600160a01b038781166004528616602452604485905291602083606481808c5af1925060015f51148316611184578383151615611178573d5f823e3d81fd5b5f883b113d1516831692505b604052505f60605295945050505050565b5f805f83516041036111cc576020840151604085015160608601515f1a6111be88828585611343565b9550955095505050506111d7565b505081515f91506002905b9250925092565b5f8260038111156111f1576111f161183d565b036111fa575050565b600182600381111561120e5761120e61183d565b0361122c5760405163f645eedf60e01b815260040160405180910390fd5b60028260038111156112405761124061183d565b036112615760405163fce698f760e01b815260048101829052602401610411565b60038260038111156112755761127561183d565b03611296576040516335e2f38360e21b815260048101829052602401610411565b5050565b606060ff83146112b4576112ad8361140b565b9050610a55565b8180546112c090611851565b80601f01602080910402602001604051908101604052809291908181526020018280546112ec90611851565b80156113375780601f1061130e57610100808354040283529160200191611337565b820191905f5260205f20905b81548152906001019060200180831161131a57829003601f168201915b50505050509050610a55565b5f80807f7fffffffffffffffffffffffffffffff5d576e7357a4501ddfe92f46681b20a084111561137c57505f91506003905082611401565b604080515f808252602082018084528a905260ff891692820192909252606081018790526080810186905260019060a0016020604051602081039080840390855afa1580156113cd573d5f803e3d5ffd5b5050604051601f1901519150506001600160a01b0381166113f857505f925060019150829050611401565b92505f91508190505b9450945094915050565b60605f61141783611448565b6040805160208082528183019092529192505f91906020820181803683375050509182525060208101929092525090565b5f60ff8216601f811115610a5557604051632cd44ac360e21b815260040160405180910390fd5b5f60e0828403121561147f575f80fd5b50919050565b5f8083601f840112611495575f80fd5b50813567ffffffffffffffff8111156114ac575f80fd5b6020830191508360208285010111156114c3575f80fd5b9250929050565b5f805f805f8061020087890312156114e0575f80fd5b6114ea888861146f565b955060e087013567ffffffffffffffff80821115611506575f80fd5b6115128a838b01611485565b90975095508591506115288a6101008b0161146f565b94506101e089013591508082111561153e575f80fd5b5061154b89828a01611485565b979a9699509497509295939492505050565b80356001600160a01b0381168114611573575f80fd5b919050565b5f8060408385031215611589575f80fd5b6115928361155d565b946020939093013593505050565b5f602082840312156115b0575f80fd5b5035919050565b5f805f61010084860312156115ca575f80fd5b6115d4858561146f565b925060e084013567ffffffffffffffff8111156115ef575f80fd5b6115fb86828701611485565b9497909650939450505050565b5f81518084525f5b8181101561162c57602081850181015186830182015201611610565b505f602082860101526020601f19601f83011685010191505092915050565b8215158152604060208201525f6116656040830184611608565b949350505050565b60ff60f81b881681525f602060e0602084015261168d60e084018a611608565b838103604085015261169f818a611608565b606085018990526001600160a01b038816608086015260a0850187905284810360c0860152855180825260208088019350909101905f5b818110156116f2578351835292840192918401916001016116d6565b50909c9b505050505050505050505050565b5f8060208385031215611715575f80fd5b823567ffffffffffffffff8082111561172c575f80fd5b818501915085601f83011261173f575f80fd5b81358181111561174d575f80fd5b8660208260051b8501011115611761575f80fd5b60209290920196919550909350505050565b5f60e08284031215611783575f80fd5b61178d838361146f565b9392505050565b5f602082840312156117a4575f80fd5b61178d8261155d565b5f602082840312156117bd575f80fd5b8135801515811461178d575f80fd5b634e487b7160e01b5f52601160045260245ffd5b8082028115828204841417610a5557610a556117cc565b5f8261181157634e487b7160e01b5f52601260045260245ffd5b500490565b81810381811115610a5557610a556117cc565b634e487b7160e01b5f52603260045260245ffd5b634e487b7160e01b5f52602160045260245ffd5b600181811c9082168061186557607f821691505b60208210810361147f57634e487b7160e01b5f52602260045260245ffdfea26469706673582212203e2195e9bb89cff186dcd11364136943c64fffc4fdb24a5e578c726e2b6feb1a64736f6c63430008180033","linkReferences":{}},"methodIdentifiers":{"DOMAIN_SEPARATOR()":"3644e515","FEE_DENOMINATOR()":"d73792a9","MAX_FEE()":"bc063e1a","ORDER_TYPEHASH()":"f973a209","cancelOrders(uint256[])":"b55fb574","cancelledNonces(address,uint256)":"6b9fa3e6","cardNft()":"5d60c7b0","eip712Domain()":"84b0196e","feeBps()":"24a9d853","feeRecipient()":"46904840","hashOrder((address,uint256,uint256,bool,uint256,uint256,uint256))":"c73d0361","isOrderValid((address,uint256,uint256,bool,uint256,uint256,uint256),bytes)":"7d4eb6a0","owner()":"8da5cb5b","pause()":"8456cb59","paused()":"5c975abb","renounceOwnership()":"715018a6","setFeeBps(uint256)":"72c27b62","setFeeRecipient(address)":"e74b981b","settle((address,uint256,uint256,bool,uint256,uint256,uint256),bytes,(address,uint256,uint256,bool,uint256,uint256,uint256),bytes)":"4d28f4fd","settledOrders(bytes32)":"7cac25ae","transferOwnership(address)":"f2fde38b","unpause()":"3f4ba83a","usdc()":"3e413bee"},"id":60}