{"abi":[{"type":"constructor","inputs":[{"name":"_usdc","type":"address","internalType":"address"},{"name":"_cardNft","type":"address","internalType":"address"},{"name":"_operator","type":"address","internalType":"address"},{"name":"_owner","type":"address","internalType":"address"}],"stateMutability":"nonpayable"},{"type":"function","name":"cardNft","inputs":[],"outputs":[{"name":"","type":"address","internalType":"contract IERC1155"}],"stateMutability":"view"},{"type":"function","name":"depositNft","inputs":[{"name":"tokenId","type":"uint256","internalType":"uint256"},{"name":"quantity","type":"uint256","internalType":"uint256"}],"outputs":[],"stateMutability":"nonpayable"},{"type":"function","name":"depositUsdc","inputs":[{"name":"amount","type":"uint256","internalType":"uint256"}],"outputs":[],"stateMutability":"nonpayable"},{"type":"function","name":"nftBalance","inputs":[{"name":"","type":"address","internalType":"address"},{"name":"","type":"uint256","internalType":"uint256"}],"outputs":[{"name":"","type":"uint256","internalType":"uint256"}],"stateMutability":"view"},{"type":"function","name":"onERC1155BatchReceived","inputs":[{"name":"","type":"address","internalType":"address"},{"name":"","type":"address","internalType":"address"},{"name":"","type":"uint256[]","internalType":"uint256[]"},{"name":"","type":"uint256[]","internalType":"uint256[]"},{"name":"","type":"bytes","internalType":"bytes"}],"outputs":[{"name":"","type":"bytes4","internalType":"bytes4"}],"stateMutability":"nonpayable"},{"type":"function","name":"onERC1155Received","inputs":[{"name":"","type":"address","internalType":"address"},{"name":"","type":"address","internalType":"address"},{"name":"","type":"uint256","internalType":"uint256"},{"name":"","type":"uint256","internalType":"uint256"},{"name":"","type":"bytes","internalType":"bytes"}],"outputs":[{"name":"","type":"bytes4","internalType":"bytes4"}],"stateMutability":"nonpayable"},{"type":"function","name":"operator","inputs":[],"outputs":[{"name":"","type":"address","internalType":"address"}],"stateMutability":"view"},{"type":"function","name":"owner","inputs":[],"outputs":[{"name":"","type":"address","internalType":"address"}],"stateMutability":"view"},{"type":"function","name":"pause","inputs":[],"outputs":[],"stateMutability":"nonpayable"},{"type":"function","name":"paused","inputs":[],"outputs":[{"name":"","type":"bool","internalType":"bool"}],"stateMutability":"view"},{"type":"function","name":"renounceOwnership","inputs":[],"outputs":[],"stateMutability":"nonpayable"},{"type":"function","name":"setOperator","inputs":[{"name":"_operator","type":"address","internalType":"address"}],"outputs":[],"stateMutability":"nonpayable"},{"type":"function","name":"supportsInterface","inputs":[{"name":"interfaceId","type":"bytes4","internalType":"bytes4"}],"outputs":[{"name":"","type":"bool","internalType":"bool"}],"stateMutability":"view"},{"type":"function","name":"transferNftFrom","inputs":[{"name":"from","type":"address","internalType":"address"},{"name":"to","type":"address","internalType":"address"},{"name":"tokenId","type":"uint256","internalType":"uint256"},{"name":"quantity","type":"uint256","internalType":"uint256"}],"outputs":[],"stateMutability":"nonpayable"},{"type":"function","name":"transferOwnership","inputs":[{"name":"newOwner","type":"address","internalType":"address"}],"outputs":[],"stateMutability":"nonpayable"},{"type":"function","name":"transferUsdcFrom","inputs":[{"name":"from","type":"address","internalType":"address"},{"name":"to","type":"address","internalType":"address"},{"name":"amount","type":"uint256","internalType":"uint256"}],"outputs":[],"stateMutability":"nonpayable"},{"type":"function","name":"unpause","inputs":[],"outputs":[],"stateMutability":"nonpayable"},{"type":"function","name":"usdc","inputs":[],"outputs":[{"name":"","type":"address","internalType":"contract IERC20"}],"stateMutability":"view"},{"type":"function","name":"usdcBalance","inputs":[{"name":"","type":"address","internalType":"address"}],"outputs":[{"name":"","type":"uint256","internalType":"uint256"}],"stateMutability":"view"},{"type":"function","name":"withdrawNft","inputs":[{"name":"tokenId","type":"uint256","internalType":"uint256"},{"name":"quantity","type":"uint256","internalType":"uint256"}],"outputs":[],"stateMutability":"nonpayable"},{"type":"function","name":"withdrawUsdc","inputs":[{"name":"amount","type":"uint256","internalType":"uint256"}],"outputs":[],"stateMutability":"nonpayable"},{"type":"event","name":"NftDeposited","inputs":[{"name":"user","type":"address","indexed":true,"internalType":"address"},{"name":"tokenId","type":"uint256","indexed":true,"internalType":"uint256"},{"name":"quantity","type":"uint256","indexed":false,"internalType":"uint256"}],"anonymous":false},{"type":"event","name":"NftWithdrawn","inputs":[{"name":"user","type":"address","indexed":true,"internalType":"address"},{"name":"tokenId","type":"uint256","indexed":true,"internalType":"uint256"},{"name":"quantity","type":"uint256","indexed":false,"internalType":"uint256"}],"anonymous":false},{"type":"event","name":"OperatorUpdated","inputs":[{"name":"oldOperator","type":"address","indexed":false,"internalType":"address"},{"name":"newOperator","type":"address","indexed":false,"internalType":"address"}],"anonymous":false},{"type":"event","name":"OwnershipTransferred","inputs":[{"name":"previousOwner","type":"address","indexed":true,"internalType":"address"},{"name":"newOwner","type":"address","indexed":true,"internalType":"address"}],"anonymous":false},{"type":"event","name":"Paused","inputs":[{"name":"account","type":"address","indexed":false,"internalType":"address"}],"anonymous":false},{"type":"event","name":"Unpaused","inputs":[{"name":"account","type":"address","indexed":false,"internalType":"address"}],"anonymous":false},{"type":"event","name":"UsdcDeposited","inputs":[{"name":"user","type":"address","indexed":true,"internalType":"address"},{"name":"amount","type":"uint256","indexed":false,"internalType":"uint256"}],"anonymous":false},{"type":"event","name":"UsdcWithdrawn","inputs":[{"name":"user","type":"address","indexed":true,"internalType":"address"},{"name":"amount","type":"uint256","indexed":false,"internalType":"uint256"}],"anonymous":false},{"type":"error","name":"EnforcedPause","inputs":[]},{"type":"error","name":"ExpectedPause","inputs":[]},{"type":"error","name":"InsufficientBalance","inputs":[]},{"type":"error","name":"NotOperator","inputs":[]},{"type":"error","name":"OwnableInvalidOwner","inputs":[{"name":"owner","type":"address","internalType":"address"}]},{"type":"error","name":"OwnableUnauthorizedAccount","inputs":[{"name":"account","type":"address","internalType":"address"}]},{"type":"error","name":"ReentrancyGuardReentrantCall","inputs":[]},{"type":"error","name":"SafeERC20FailedOperation","inputs":[{"name":"token","type":"address","internalType":"address"}]},{"type":"error","name":"ZeroAddress","inputs":[]},{"type":"error","name":"ZeroAmount","inputs":[]}],"bytecode":{"object":"0x60c060405234801562000010575f80fd5b50604051620013e5380380620013e583398101604081905262000033916200016a565b8060017f9b779b17422d0df92223018b32b4d1fa46e071723d6817e2486d003becc55f00556001600160a01b0381166200008657604051631e4fbdf760e01b81525f600482015260240160405180910390fd5b6200009181620000ff565b506001600160a01b0384161580620000b057506001600160a01b038316155b15620000cf5760405163d92e233d60e01b815260040160405180910390fd5b506001600160a01b0392831660805290821660a052600180546001600160a01b03191691909216179055620001c4565b5f80546001600160a01b038381166001600160a01b0319831681178455604051919092169283917f8be0079c531659141344cd1fd0a4f28419497f9722a3daafe3b4186f6b6457e09190a35050565b80516001600160a01b038116811462000165575f80fd5b919050565b5f805f80608085870312156200017e575f80fd5b62000189856200014e565b935062000199602086016200014e565b9250620001a9604086016200014e565b9150620001b9606086016200014e565b905092959194509250565b60805160a0516111d5620002105f395f8181610223015281816105b00152818161082e015261094301525f81816101a5015281816103cb015281816104ff015261073601526111d55ff3fe608060405234801561000f575f80fd5b5060043610610132575f3560e01c806379347371116100b457806395414edd1161007957806395414edd146102b557806395782e35146102c8578063b3ab15fb146102db578063bc197c81146102ee578063f23a6e6114610326578063f2fde38b14610345575f80fd5b8063793473711461024d57806380f72ba1146102605780638456cb591461027357806384f4bbcd1461027b5780638da5cb5b146102a5575f80fd5b8063570ca735116100fa578063570ca735146101e75780635b06dece146101fa5780635c975abb1461020d5780635d60c7b01461021e578063715018a614610245575f80fd5b806301ffc9a714610136578063106846671461015e5780632357928e1461018b5780633e413bee146101a05780633f4ba83a146101df575b5f80fd5b610149610144366004610da4565b610358565b60405190151581526020015b60405180910390f35b61017d61016c366004610ded565b60026020525f908152604090205481565b604051908152602001610155565b61019e610199366004610e06565b61038e565b005b6101c77f000000000000000000000000000000000000000000000000000000000000000081565b6040516001600160a01b039091168152602001610155565b61019e610465565b6001546101c7906001600160a01b031681565b61019e610208366004610e06565b610477565b5f54600160a01b900460ff16610149565b6101c77f000000000000000000000000000000000000000000000000000000000000000081565b61019e610558565b61019e61025b366004610e1d565b610569565b61019e61026e366004610e3d565b610699565b61019e610762565b61017d610289366004610e76565b600360209081525f928352604080842090915290825290205481565b5f546001600160a01b03166101c7565b61019e6102c3366004610e9e565b610772565b61019e6102d6366004610e1d565b61089c565b61019e6102e9366004610ded565b6109df565b61030d6102fc36600461100b565b63bc197c8160e01b95945050505050565b6040516001600160e01b03199091168152602001610155565b61030d6103343660046110ae565b63f23a6e6160e01b95945050505050565b61019e610353366004610ded565b610a77565b5f6001600160e01b03198216630271189760e51b148061038857506301ffc9a760e01b6001600160e01b03198316145b92915050565b610396610ab6565b61039e610ad1565b805f036103be57604051631f2a200560e01b815260040160405180910390fd5b6103f36001600160a01b037f000000000000000000000000000000000000000000000000000000000000000016333084610afb565b335f9081526002602052604081208054839290610411908490611122565b909155505060405181815233907f36e229bdaedfa85d503535ae31c3ac9e40d88f1ab4fa53870ef2da82df48e990906020015b60405180910390a261046260015f8051602061118083398151915255565b50565b61046d610b37565b610475610b63565b565b61047f610ab6565b805f0361049f57604051631f2a200560e01b815260040160405180910390fd5b335f908152600260205260409020548111156104ce57604051631e9acf1760e31b815260040160405180910390fd5b335f90815260026020526040812080548392906104ec908490611135565b9091555061052690506001600160a01b037f0000000000000000000000000000000000000000000000000000000000000000163383610bb7565b60405181815233907f0d1589f631deb2542273b007140b132a18d48a4303d103fe64d353db07e01b5790602001610444565b610560610b37565b6104755f610bec565b610571610ab6565b610579610ad1565b805f0361059957604051631f2a200560e01b815260040160405180910390fd5b604051637921219560e11b81526001600160a01b037f0000000000000000000000000000000000000000000000000000000000000000169063f242432a906105eb903390309087908790600401611148565b5f604051808303815f87803b158015610602575f80fd5b505af1158015610614573d5f803e3d5ffd5b5050335f90815260036020908152604080832087845290915281208054859450909250610642908490611122565b9091555050604051818152829033907fad8a888507355d5cb014c285a053df6d070c5802e0ee4c572de23f5450748add906020015b60405180910390a361069560015f8051602061118083398151915255565b5050565b6001546001600160a01b031633146106c457604051631f0853c160e21b815260040160405180910390fd5b6001600160a01b0383165f908152600260205260409020548111156106fc57604051631e9acf1760e31b815260040160405180910390fd5b6001600160a01b0383165f9081526002602052604081208054839290610723908490611135565b9091555061075d90506001600160a01b037f0000000000000000000000000000000000000000000000000000000000000000168383610bb7565b505050565b61076a610b37565b610475610c3b565b6001546001600160a01b0316331461079d57604051631f0853c160e21b815260040160405180910390fd5b6001600160a01b0384165f9081526003602090815260408083208584529091529020548111156107e057604051631e9acf1760e31b815260040160405180910390fd5b6001600160a01b0384165f90815260036020908152604080832085845290915281208054839290610812908490611135565b9091555050604051637921219560e11b81526001600160a01b037f0000000000000000000000000000000000000000000000000000000000000000169063f242432a90610869903090879087908790600401611148565b5f604051808303815f87803b158015610880575f80fd5b505af1158015610892573d5f803e3d5ffd5b5050505050505050565b6108a4610ab6565b805f036108c457604051631f2a200560e01b815260040160405180910390fd5b335f9081526003602090815260408083208584529091529020548111156108fe57604051631e9acf1760e31b815260040160405180910390fd5b335f90815260036020908152604080832085845290915281208054839290610927908490611135565b9091555050604051637921219560e11b81526001600160a01b037f0000000000000000000000000000000000000000000000000000000000000000169063f242432a9061097e903090339087908790600401611148565b5f604051808303815f87803b158015610995575f80fd5b505af11580156109a7573d5f803e3d5ffd5b50506040518381528492503391507ff4810e246283b569c1cc659fec34bfb4df149216a59685b1cb2c8d5b6eda394890602001610677565b6109e7610b37565b6001600160a01b038116610a0e5760405163d92e233d60e01b815260040160405180910390fd5b600154604080516001600160a01b03928316815291831660208301527ffbe5b6cbafb274f445d7fed869dc77a838d8243a22c460de156560e8857cad03910160405180910390a1600180546001600160a01b0319166001600160a01b0392909216919091179055565b610a7f610b37565b6001600160a01b038116610aad57604051631e4fbdf760e01b81525f60048201526024015b60405180910390fd5b61046281610bec565b610abe610c7d565b60025f8051602061118083398151915255565b5f54600160a01b900460ff16156104755760405163d93c066560e01b815260040160405180910390fd5b610b09848484846001610cac565b610b3157604051635274afe760e01b81526001600160a01b0385166004820152602401610aa4565b50505050565b5f546001600160a01b031633146104755760405163118cdaa760e01b8152336004820152602401610aa4565b610b6b610d19565b5f805460ff60a01b191690557f5db9ee0a495bf2e6ff9c91a7834c1ba4fdd244a5e8aa4e537bd38aeae4b073aa335b6040516001600160a01b03909116815260200160405180910390a1565b610bc48383836001610d42565b61075d57604051635274afe760e01b81526001600160a01b0384166004820152602401610aa4565b5f80546001600160a01b038381166001600160a01b0319831681178455604051919092169283917f8be0079c531659141344cd1fd0a4f28419497f9722a3daafe3b4186f6b6457e09190a35050565b610c43610ad1565b5f805460ff60a01b1916600160a01b1790557f62e78cea01bee320cd4e420270b5ea74000d11b0c9f74754ebdbfc544b05a258610b9a3390565b5f805160206111808339815191525460020361047557604051633ee5aeb560e01b815260040160405180910390fd5b6040516323b872dd60e01b5f8181526001600160a01b038781166004528616602452604485905291602083606481808c5af1925060015f51148316610d08578383151615610cfc573d5f823e3d81fd5b5f883b113d1516831692505b604052505f60605295945050505050565b5f54600160a01b900460ff1661047557604051638dfc202b60e01b815260040160405180910390fd5b60405163a9059cbb60e01b5f8181526001600160a01b038616600452602485905291602083604481808b5af1925060015f51148316610d98578383151615610d8c573d5f823e3d81fd5b5f873b113d1516831692505b60405250949350505050565b5f60208284031215610db4575f80fd5b81356001600160e01b031981168114610dcb575f80fd5b9392505050565b80356001600160a01b0381168114610de8575f80fd5b919050565b5f60208284031215610dfd575f80fd5b610dcb82610dd2565b5f60208284031215610e16575f80fd5b5035919050565b5f8060408385031215610e2e575f80fd5b50508035926020909101359150565b5f805f60608486031215610e4f575f80fd5b610e5884610dd2565b9250610e6660208501610dd2565b9150604084013590509250925092565b5f8060408385031215610e87575f80fd5b610e9083610dd2565b946020939093013593505050565b5f805f8060808587031215610eb1575f80fd5b610eba85610dd2565b9350610ec860208601610dd2565b93969395505050506040820135916060013590565b634e487b7160e01b5f52604160045260245ffd5b604051601f8201601f1916810167ffffffffffffffff81118282101715610f1a57610f1a610edd565b604052919050565b5f82601f830112610f31575f80fd5b8135602067ffffffffffffffff821115610f4d57610f4d610edd565b8160051b610f5c828201610ef1565b9283528481018201928281019087851115610f75575f80fd5b83870192505b84831015610f9457823582529183019190830190610f7b565b979650505050505050565b5f82601f830112610fae575f80fd5b813567ffffffffffffffff811115610fc857610fc8610edd565b610fdb601f8201601f1916602001610ef1565b818152846020838601011115610fef575f80fd5b816020850160208301375f918101602001919091529392505050565b5f805f805f60a0868803121561101f575f80fd5b61102886610dd2565b945061103660208701610dd2565b9350604086013567ffffffffffffffff80821115611052575f80fd5b61105e89838a01610f22565b94506060880135915080821115611073575f80fd5b61107f89838a01610f22565b93506080880135915080821115611094575f80fd5b506110a188828901610f9f565b9150509295509295909350565b5f805f805f60a086880312156110c2575f80fd5b6110cb86610dd2565b94506110d960208701610dd2565b93506040860135925060608601359150608086013567ffffffffffffffff811115611102575f80fd5b6110a188828901610f9f565b634e487b7160e01b5f52601160045260245ffd5b808201808211156103885761038861110e565b818103818111156103885761038861110e565b6001600160a01b0394851681529290931660208301526040820152606081019190915260a0608082018190525f9082015260c0019056fe9b779b17422d0df92223018b32b4d1fa46e071723d6817e2486d003becc55f00a26469706673582212204b6b6e9583400b2f6cc9356412da6fc1f6701c52bb8670be8485d76f3524316a64736f6c63430008180033","linkReferences":{}},"methodIdentifiers":{"cardNft()":"5d60c7b0","depositNft(uint256,uint256)":"79347371","depositUsdc(uint256)":"2357928e","nftBalance(address,uint256)":"84f4bbcd","onERC1155BatchReceived(address,address,uint256[],uint256[],bytes)":"bc197c81","onERC1155Received(address,address,uint256,uint256,bytes)":"f23a6e61","operator()":"570ca735","owner()":"8da5cb5b","pause()":"8456cb59","paused()":"5c975abb","renounceOwnership()":"715018a6","setOperator(address)":"b3ab15fb","supportsInterface(bytes4)":"01ffc9a7","transferNftFrom(address,address,uint256,uint256)":"95414edd","transferOwnership(address)":"f2fde38b","transferUsdcFrom(address,address,uint256)":"80f72ba1","unpause()":"3f4ba83a","usdc()":"3e413bee","usdcBalance(address)":"10684667","withdrawNft(uint256,uint256)":"95782e35","withdrawUsdc(uint256)":"5b06dece"},"id":59}